:10000000E834002095770000917700009177000098
:1000100091770000917700009177000000000000C8
:1000200000000000000000000000000091770000C8
:1000300091770000000000009177000091770000A8
:100040009177000091770000ED2900009177000082
:100050009177000091770000917700009177000080
:100060009177000091770000917700009177000070
:100070009177000091770000917700009177000060
:100080009177000091770000917700009177000050
:100090009177000091770000917700009177000040
:1000A0009177000091770000917700009177000030
:1000B0009177000091770000917700009177000020
:1000C0009177000091770000917700009177000010
:1000D0009177000091770000917700009177000000
:1000E00091770000917700000000000091770000F8
:1000F00091770000917700009177000091770000E0
:1001000091770000917700009177000091770000CF
:1001100000000000000000009177000091770000CF
:1001200091770000917700009177000091770000AF
:10013000917700009177000091770000917700009F
:1001400000000000000000000000000000000000AF
:10015000917700009177000091770000917700007F
:10016000000000000000000000000000000000008F
:10017000000000000000000000000000000000007F
:10018000000000000000000000000000000000006F
:10019000000000000000000000000000000000005F
:1001A000000000000000000000000000000000004F
:1001B000917700009177000091770000917700001F
:1001C000917700009177000091770000917700000F
:1001D00091770000917700009177000091770000FF
:1001E00091770000917700009177000091770000EF
:1001F00091770000917700009177000091770000DF
:1002000091770000917700009177000000000000D6
:1002100091770000917700009177000091770000BE
:1002200091770000917700009177000091770000AE
:10023000917700009177000091770000917700009E
:10024000917700009177000091770000917700008E
:10025000917700009177000091770000917700007E
:1002600091770000917700009177000008B5034B6B
:100270001B6803FB00F002F08BFC08BD2C0700207C
:1002800008B5034B1B6803FB00F002F081FC08BDBE
:100290002807002008B5094802F07EFC02F016FD90
:1002A000074BA3FB00308009064B1860064BA3FBED
:1002B00000308009054B186008BD00BF400500C133
:1002C000F11976052C070020D34D62102807002075
:1002D00010B5174802F038FC0A2002F059FC154C02
:1002E0002046E02103F0EEF92046202101220A23D6
:1002F00003F02CF92046402101220A2303F026F9BD
:100300002046802101220A2303F020F90A4802F046
:100310001BFC0A2002F03CFC0848072103F0E0F92E
:10032000074802F011FC0748302103F011FA10BD14
:10033000020800F000600040040800F000400240A5
:10034000030800F00070004010B50A4C20468021E0
:10035000042203F0CBF82046802103F099F92046CF
:100360004021042203F0C2F82046402103F090F916
:1003700010BD00BF0060004010B50F4802F0E4FB64
:100380000E4802F0E1FB4FF0031003F0EFF90C48C8
:1003900003F0ECF90B4C2046012103F0BDF9204697
:1003A000022103F0ABF902F091FC0146064800225D
:1003B00000F0A4FB10BD00BF032000F0030800F014
:1003C00003040300007000400030024070B582B0AA
:1003D000274802F0B9FB0A2002F0DAFB254802F0B8
:1003E000B3FB0A2002F0D4FB234A244B13602449B8
:1003F0000B6843F001030B60A1F582710B6843F0B9
:1004000001030B60FC310B6843F001030B60002417
:1004100014600A2002F0BCFB1A4D2846214603F066
:1004200061FB194803F0A2F9184803F09FF9184836
:1004300003F09CF9174E3046072103F07BF94FF487
:100440007A730093102301932846134922462346CA
:1004500003F012FB3046082103F042F93046082130
:100460000A4603F02BF9284603F026FB02B070BDC4
:10047000050800F0011C00F0205502404B434F4C92
:1004800024550240009000400208050002000500CB
:100490000204050000500240801A060008B502F070
:1004A000F9F9FFF7F7FEFFF713FFFFF765FFFFF717
:1004B0008DFFFFF749FF03F011FA08BD044B054A11
:1004C0001A60054A5A6040221A725872704700BF7B
:1004D00040070020030800F0007000400EB42DE932
:1004E000F04183B0014609AC14F8046B304D284646
:1004F000002200F02FFB0434019428469DF82810B8
:1005000000F032FB012E0ED12846072100F02AFB15
:100510004FF4FA7002F03CFB2C46204600F01EFB24
:100520000028FAD13FE02248032100F01BFB4FF4E2
:10053000FA7002F02DFB1E4C204600F00FFB002845
:10054000FAD1013E012E1BDD0125194CA8464FF4BE
:10055000FA77019B1A1D01922046197800F004FBDE
:100560002046414600F0FEFA384602F011FB2046D4
:1005700000F0F4FA0028FAD10135EDB2B542E8DB1B
:100580000B4C2046019B197800F0EEFA204605211D
:1005900000F0E8FA4FF4FA7002F0FAFA204600F0A0
:1005A000DDFA0028FAD103B0BDE8F04103B070478E
:1005B0000030024070B50E46C5B2174C20462946A1
:1005C000002200F0C7FA2046314600F0CDFA20465E
:1005D000032100F0C7FA4FF4FA7002F0D9FA20466E
:1005E00000F0BCFA0028FAD10B4C20462946012223
:1005F00000F0B0FA2046072100F0B4FA4FF4FA7088
:1006000002F0C6FA204600F0A9FA0028FAD1024802
:1006100000F0ACFA70BD00BF00300240054BA3FBF8
:100620000023DB0803EB8302A0EB420040EA031047
:10063000C0B27047CDCCCCCC2DE9F04387B00F468B
:1006400016461D46FFF7EAFF04463846FFF7E6FF69
:1006500081463046FFF7E2FF80462846FFF7DEFF7F
:1006600007469DF83800FFF7D9FF06469DF83C0085
:10067000FFF7D4FF05469DF84000FFF7CFFFCDF808
:100680000090CDF8048002970396049505906820A9
:10069000082100222346FFF721FF07B0BDE8F083C1
:1006A000F8B505460F4616462E4C20464B21002233
:1006B00000F050FA2046002100F056FA20460321AF
:1006C00000F050FA204600F049FA0028FAD0254CF4
:1006D000204600F043FA0028FAD1224C20464B2154
:1006E000012200F037FA20460B2100F03BFA2046A9
:1006F00000F034FA0028FAD01A4C204600F02EFA06
:100700000028FAD1174C204600F030FA2860204625
:10071000052100F027FA204600F020FA0028FAD040
:10072000104C204600F01AFA0028FAD10D4C204651
:1007300000F01CFA38602B68C3F3C0133360204606
:100740004B21002200F006FA2046012100F00CFAAD
:100750002046032100F006FA204600F0FFF90028A9
:10076000FAD0F8BD003002402DE9F0410746884636
:1007700015461E462A4C20462921002200F0EAF99F
:100780002046802100F0F0F92046032100F0ECF92A
:100790002046032100F0E6F9204600F0DFF90028AA
:1007A000FAD01F4C204600F0D9F90028FAD14FF4B6
:1007B000C870FFF765FD29208C21FFF7FBFEC8F804
:1007C000000029208D21FFF7F5FE386029208E21B9
:1007D000FFF7F0FE306029208F21FFF7EBFE286045
:1007E0000F4C20462921002200F0B4F92046802138
:1007F00000F0BAF92046002100F0B6F920460321A6
:1008000000F0B0F9204600F0A9F90028FAD0044C15
:10081000204600F0A3F90028FAD1BDE8F08100BF1E
:10082000003002402DE9F04383B080468946224DD6
:1008300028460821002202F041FF204C2046AA2130
:1008400003F040F920460DF1060103F043F9A02022
:10085000FFF716FD284608210A4602F02FFF282040
:10086000FFF704FD28460821002202F027FF20465A
:10087000002103F027F9124F2046394603F02AF9E8
:100880002046002103F01EF90E4E2046314603F0AB
:1008900021F94FF4A570FFF7F3FC284608210A461A
:1008A00002F00CFF3B88A9F800303388A8F800302C
:1008B00003B0BDE8F08300BF00500240009000404C
:1008C0008A0700208C07002038B5094C204603F029
:1008D0005FF9204603F070F9064D2846062104F022
:1008E00069FD20462946002204F080FD38BD00BF86
:1008F000400700205007002010B5054C204603F0AB
:100900005BF9204604F05AF8204603F08BFA10BD3C
:10091000400700202DE9F04184B080460F4616467E
:100920001D46184C204603F047F905EBC505164A4D
:1009300015442046294604F0EBF9204603F072FAEC
:100940006420FFF793FC204603F036F92046294641
:1009500004F0DEF9204601A903F03AFD01A80921BF
:1009600006F0CEF950B19DF80530C8F800309DF87A
:1009700004203A60DB093360012000E0002004B06D
:10098000BDE8F081400700205207002010B4421E4D
:10099000C41D017A12F8013F0B440372A242F8D140
:1009A0005DF8044B704700BF2DE9F04389B04B4C14
:1009B0004B4D20462946FFF735FF2A882388494CAE
:1009C0004FF0300984F8189040216176C2F3052178
:1009D000A176E2761A0A227763770025A577E57774
:1009E00084F8205004F118063046FFF7CFFF304658
:1009F000092102F069FF3220FFF738FC07A806A999
:100A000005AAFFF74DFE84F8189042236376059BF4
:100A1000A376079BE376069B23776577A577E57733
:100A200084F820503046FFF7B1FF3046092102F02C
:100A30004BFF04A803A902AA01ABFFF795FE84F8B7
:100A4000189043236376049BA376039BE376029B73
:100A50002377019B6377A577E57784F820503046AC
:100A6000FFF794FF3046092102F02EFF3C2002F0F0
:100A700097FFFFF741FF6420FFF7F8FBDFF86C807A
:100A8000194F404639466A460123FFF743FF84F871
:100A9000189044236376009BA376D8F80030E37661
:100AA0003B682377404639466A460223FFF732FF08
:100AB000009B6377D8F80030A3773B68E37784F82E
:100AC00020503C2002F036FF3046FFF75FFF3046F3
:100AD000092102F0F9FE09B0BDE8F0838807002083
:100AE00030070020780500204C0700203807002040
:100AF000036A43F010030362704700BF70B50446F9
:100B00000D461646FFF7F4FF0E4A0F4B002E18BF96
:100B10001A4602EB820292006B1E1344B3FBF2F200
:100B2000013AE260D4F8C03F13F0010F09D0074B3F
:100B30002B44074AA2FB0323DB0D013B43F0800358
:100B4000E36070BDA0860100801A06007F47370170
:100B50007DD0446942EA410202607047406800F07B
:100B6000010070474160704781607047806870473E
:100B700010B5194B01221A70DC69402C28BF4024A3
:100B80009A69D969091BD961111999611348002122
:100B9000234602F081FB402C06D1104800214FF47F
:100BA000817202F095FB10BD04220B4B1A700B48AA
:100BB00000214FF4857202F08BFB094B1B681B6808
:100BC0005B693BB1044A116A21B11446506C9847E5
:100BD0000023236210BD00BF9007002000000540E5
:100BE000E007002010B582B004460B4800210A46F9
:100BF00002F042FB6368002BB4BF0023A3688DF8AA
:100C000007300123E3610DF10703A3610020FFF723
:100C1000AFFF02B010BD00BF0000054038B504466C
:100C20000D4606480021012202F026FB6B8843F0A6
:100C3000004363600423237038BD00BF00000540FB
:100C40002DE9F04F85B0554B02221A70544A1268B4
:100C500093F83610926852F82190DA69402A28BF3A
:100C6000402293469B8E6BBB4C4B93F833305BBB5F
:100C70004A4B9A6901AB1068516803C3127A1A7023
:100C8000484600F0DFFDADF806005E46092E28BF9D
:100C900009264448002101AA334602F0FDFAD9F89A
:100CA00004301B681B88B34206D13C4B00229A8655
:100CB000012283F8332002E0F3B2384A9386C6EB70
:100CC0000B0602E0164600E016464EB3334DDFF841
:100CD000D4A04FF0000895F83320D9F8043053F829
:100CE0002270AB8E3C88E41AB44228BF34467A683E
:100CF000504641461A44234602F0CEFA361BAB8ECC
:100D000053FA84F4A4B2AC863B88A34206D195F88A
:100D10003330013385F83330A5F83480002EDAD132
:100D20001E4BDA69CBEB0202DA6193F8333099F8A3
:100D300000209A4202D80021184AD161174AD2698C
:100D400042B1164AD9F8041051F82310938E49681D
:100D50000B449361BBF1400F06D1124800214FF4C0
:100D6000817202F0B5FA15E00E4800214FF4857249
:100D700002F0AEFA0A4B1B681B685B693BB1074A7D
:100D8000116A21B11446506C984700232362042253
:100D9000024B1A7005B0BDE8F08F00BF900700202D
:100DA000E0070020000005403C220D4B1A640D4B6B
:100DB0001A680D4B13400D4A934202D13A22084B58
:100DC0001A64074B00229A6401219960D9601A7055
:100DD00083F8242083F8382083F83720704700BF39
:100DE0009007002000E00F400000FF7000000A1094
:100DF00038B50C46544B1960544B5A64FFF7D4FF76
:100E0000534B1B78032B03D10022514B1A7001E086
:100E1000022B59D04F4D284601F076FE284601F0AE
:100E200093FE02F01BF84C4B196829B94B484FF45C
:100E3000407202F097FA04E048484FF4007202F062
:100E400091FA474B1B686BB1444802F0D5FA444B0A
:100E50001B6813F0100F414814BF0021012101F05D
:100E6000B5F802E03D4802F0CFFA394B1B78052B6C
:100E700003D13A4802F05EFA03E013B9374802F0B2
:100E80005DFA0022324B1A70304BDB6C13F0010F0D
:100E90000FD0324D28460C2102F0E2FA28463621C6
:100EA00002F0F6FA284602F0DFFA0122274B9A6494
:100EB0000AE02A4D284602F0DFFA2846002102F017
:100EC000CFFA0022214B9A64002001F029FC1F4D2B
:100ED000E86301F0E7FCEB6803F18043013BA268A3
:100EE00052F823305B681B685B68DB7903F0C00352
:100EF000C02B06D195F8243043F0010385F8243047
:100F000006E0124A92F8243023F0010382F82430DC
:100F10000F4B1B78022B16D0104C204601F0E6FF39
:100F2000204602F01DF820462F2101F0C9FF20467F
:100F30004FF0FF3102F008F8204602F08DF8034B25
:100F4000186C02F0F7FC38BDE00700209007002085
:100F500005040020002800F00004002000000540E7
:100F60009C05002010B5114B186C02F019FD01F022
:100F7000B1FC00220E4B1A600E4C204640F2FF31AD
:100F800001F088FF20464FF0FF3101F0CFFF2046EF
:100F900002F068F8204601F0A9FF204601F0E0FFCA
:100FA00001F064FF044801F0E1FD10BD900700204E
:100FB000E007002000000540002800F0034B03205C
:100FC000187099611A62DA61704700BF90070020BB
:100FD00008B5044B9961DA611A620020FFF7C8FD79
:100FE00008BD00BF9007002008B5044800210A464C
:100FF00001F0F6FF0522024B1A7008BD0000054003
:101000009007002000B583B002AB402243F8042DC6
:1010100015480021154A02F005F9019B0BB3144B4A
:101020001B7913F0600F0DD0124B1B681B685B68B7
:1010300023B1114A506C0D49984712E00020FFF788
:10104000D3FF0EE00A4B5B790C2B07D80B4A52F802
:1010500023301BB108480549984702E00020FFF7FC
:10106000C3FF03B05DF804FB00000540A0050020AD
:101070009C050020E007002090070020A4790000D4
:1010800008B504480021012202F0F6F80020FFF71D
:10109000ABFF08BD000005402DE9F04782B0814656
:1010A0000D46244BD3F800A023480021012202F072
:1010B000E3F8D9F8083003F18043013BDAF808205F
:1010C00052F823603046042100F0CCFB58B3804630
:1010D00000244FF0FF37304621463A4601AB00F07E
:1010E00009FC0346E0B18278A988914218D1C17801
:1010F0006888884214D109EB0200017448463146E1
:10110000DB7800F0D9FD88B1DAF800309B686BB16C
:10111000A9886A880948406CC9B2D2B2984705E0EC
:1011200001344445D7D10020FFF75EFF02B0BDE88F
:10113000F08700BFE0070020000005409007002076
:1011400030B583B004460D46104800210A4602F02F
:1011500093F86368002B03DA00238DF807300BE067
:10116000AB88072B04D823441B7C8DF8073003E0A1
:101170000020FFF739FF07E00123E3610DF10703CA
:10118000A3610020FFF7F4FC03B030BD0000054070
:1011900070B504460E461F4B1D681F4800210122F2
:1011A00002F06AF873886A68527C9A4203D200207F
:1011B000FFF71AFF70BDA3601BB3738803F1804370
:1011C000013BAA6852F823305B681B685A6894F8A0
:1011D000373063B9D37903F0C003C02B94F82430BF
:1011E0000CBF43F0010323F0010384F8243073881B
:1011F00003F18043013BAA68204652F8231000F017
:101200008BFC2B68DB681BB1044A506CA1689847C3
:1012100070BD00BFE00700200000054090070020DF
:1012200008B5044800210A4602F026F80020FFF71E
:10123000DBFE08BD00000540F8B504460E46474BEE
:101240001F68474800210A4602F016F873881A0AF8
:10125000022A0AD0032A26D0012A63D17B68A3611F
:101260007B681B78E361002368E0DDB27B685B7C10
:10127000AB4206D80020FFF7B7FE0023A361E3616D
:101280005CE0BB6853F82500002384F83330A38664
:1012900043681B685B68A36100F0D4FAE06184F8DE
:1012A000365001234AE0B6F804E0DAB22B4B1B6853
:1012B0003BB3D96829B34AB30D682978023901EBE9
:1012C000D17149101869431EB3FBF1FC01FB0CF30B
:1012D0000133984215D1A1B16B88734507D0002323
:1012E0000CE005EB43004088704507D100E0002387
:1012F0000CFB0323B3F1FF3F09D102E00133994214
:10130000EFD10020FFF770FE002317E00023FA68FA
:1013100052F82320A261FA6852F823301B78E36167
:1013200000230BE03B681B6823B10E4A506C31462A
:101330009847F8BD0020FFF757FEF8BDA26962B1DB
:10134000E169F288914288BFE2611BB90020FFF792
:101350000FFCF8BD0020FFF773FCF8BDE00700208C
:10136000000005409007002038B505460C461E4891
:101370000021012201F080FF237813F01F0302D027
:10138000022B0FD02BE0638813F0010F06D095F8E5
:10139000243043F0020385F8243038BD0020FFF7E5
:1013A00023FE38BDA38803F07F014A1E92B2062AAD
:1013B00003D90020FFF718FE38BD62885AB983F0C0
:1013C0008003C3F3C01305EBC305ED1A0D440123DD
:1013D00085F8243038BD0020FFF706FE38BD002018
:1013E000FFF702FE38BD00BF0000054038B50446D7
:1013F0000D4624480021012201F03EFF2B7813F016
:101400001F0302D0022B0FD038E06B8813F0010FBE
:1014100006D094F8243023F0020384F8243038BD39
:101420000020FFF7E1FD38BDAB8803F07F014A1EC5
:1014300092B2072A03D90020FFF7D6FD38BD6A888B
:10144000C2B983F08003C3F3C01204EBC2039B1A3A
:101450000B44002083F8240032B90A4809014FF4F4
:10146000005201F0D7FD38BD06480901002201F005
:10147000D1FD38BD0020FFF7B7FD38BD0020FFF7D4
:10148000B3FD38BD0000054030B583B004460D46BD
:101490001E4800210A4601F0EFFE2B7803F01F03DF
:1014A000012B08D013B1022B09D020E094F824308E
:1014B000ADF806301FE00023ADF806301BE0AB8826
:1014C00003F07F02511E89B2062903D90020FFF7DD
:1014D0008BFD18E083F08003C3F3C01304EBC3015A
:1014E000CB1A1A4492F82430ADF8063003E00020FD
:1014F000FFF77AFD07E00223E3610DF10603A36124
:101500000020FFF735FB03B030BD00BF00000540F1
:10151000042904D1034B1B6813600120704700208D
:10152000704700BF9C05002008B5114B93F8383078
:10153000EBB10F4A92F839300133DBB282F839301F
:101540000A2B03D10B48002101F098FC084B93F8BB
:101550003930142B0BD10022054B83F83820064B71
:101560001B681B681B6A13B1014A506C984708BD81
:101570009007002000000540E007002030B583B050
:1015800004463648002101F0F1FC05462378DBB221
:10159000052B61D8DFE803F0171E2226035600232F
:1015A00023706368002B07DA636823F000436360ED
:1015B00061682A4801F05CFD15F0010F4CD0002055
:1015C000FFF720FD48E010F0010F45D00020FFF7A5
:1015D00019FD41E00020FFF7CBFA3DE00020FFF7C6
:1015E0002FFB39E0E369402B8CBF4023E369019373
:1015F0001A480021A26901AB01F014FEE3693F2BF8
:1016000013D804232370164B1B681B681B6933B166
:10161000216A21B1134A506C9847002323620F4876
:101620000021012201F028FE04E00C4800210A46B6
:1016300001F022FE0199A2690A44A261E3695B1AE2
:10164000E36109E010F0040F06D0044800210422F1
:1016500001F096FC0023237003B030BD000005406C
:10166000E00700209007002010B5044690F82430D1
:1016700023F0020380F82430002380F838300A4B2E
:101680001B681B689B6913B1084A506C9847E36854
:10169000A36004F10F0304F11700002203F8012FE7
:1016A0008342FBD110BD00BFE0070020900700205F
:1016B00070B5514B1B681BB9504801F0D3FC70BD8D
:1016C0000C464F4B5D6C11F0040F02D01846FFF72B
:1016D000CBFF14F0010F06D0474B1B681B68DB697A
:1016E0000BB12846984714F0020F06D0424B1B68F6
:1016F0001B681B6A0BB12846984714F0200F06D0D0
:101700003D4B1B681B685B6A0BB12846984714F079
:10171000080F12D03B4A1368013313603A4C636CD4
:10172000013363643648FFF7FFFE636C052B04D179
:1017300000226264052001F0F5F8304801F0A4FEB3
:101740002F4B9B6C022B13D100F01403102B22D1D2
:10175000294B1B681B68DB6A1BB128461521002238
:1017600098470122264B9A64244801F07DFE1EE032
:10177000012B10D100F01403042B0CD11E4B1B685D
:101780001B68DB6A1BB128461421002298470222FD
:101790001B4B9A640BE010F0020F08D0164B1B682D
:1017A0001B68DB6A1BB128461621002298471348A4
:1017B00001F0D6FB044610F0010F04D01048FFF7EB
:1017C000DDFE24F001040E4BD86BD0F8FC309847B6
:1017D000064628B10A4BD86BD0F8F8303146984706
:1017E000054B1B681B689B6A23B104B916B12846D8
:1017F0002146984770BD00BFE0070020000005406B
:1018000090070020040700209C05002070B4137886
:101810001A440B689E00446854F823502C886D6865
:101820002C44A2420AD301330B600278934204D2C3
:1018300043681E4473685A6800E00022104670BC7A
:10184000704700BF017851B1436803EB810100206C
:1018500053F8042B128810448B42F9D170470020B2
:10186000704700BFF8B503788BB10F4605460026D8
:1018700034466B6853F82430586819883A4605F0A6
:10188000C1FF064401342B78A342F2D800E00026C1
:101890003046F8BD2DE9F84F047844B39B46904696
:1018A0008946064600273C464FEA840A736853F887
:1018B0002450686829884A4605F0A4FF384440450A
:1018C0000DD9CBF80040736853F80A30586819886E
:1018D0004A46C7EB080305F0ADFFBDE8F88F0134B9
:1018E00007463378A342DFD80020BDE8F88F0020F8
:1018F000BDE8F88F2DE9F04182B004460D46174649
:101900009846B2F1FF3F04D104212A46FFF7C2FFF7
:101910001EE0CDB243681B685A6800230193B2B140
:101920001E465378042B0AD19378AB4207D1B742B5
:1019300004D1019BC8F80030104609E0013620466A
:1019400001A9FFF763FF02460028EAD100E000206A
:1019500002B0BDE8F08100BF70B582B005461E46FA
:1019600001ABFFF7C7FF90B102460379B34210D92C
:1019700000245378052B02D1B4420CD00134284600
:1019800001A9FFF743FF02460028F2D104E000203E
:1019900002E0002000E0104602B070BDF0B4154B2C
:1019A0001B68154A1A40154CA242154D05F140031B
:1019B0001ABF1D460C2608262B68834213D106E069
:1019C0001746083255F83340844207D100E02F46CD
:1019D0007868B1F57F4F0AD1013008E001339E42AB
:1019E000EED8002003E005F108020023F6E7F0BC82
:1019F000704700BF00E00F400000FF7000000A10B9
:101A0000D8790000C36821F0FE01C905C90D19434A
:101A1000C1607047C36823F4807323F00103C3607F
:101A20000B0E0360114B1A68114B1340114A93427D
:101A300011D1CBB243F4007301F4702243EA1213C4
:101A4000436001F47003C1F3072141EA132141F41B
:101A5000007181607047CBB243F400734360C1F3FF
:101A6000072141F400718160704700BF00E00F4022
:101A70000000FF7000000A1011F0FF0F18BF826213
:101A800011F47F4F18BFC262704700BF38B51546CA
:101A9000FFF784FF0446294601F030FF204601F09D
:101AA00049FF38BD8369194381617047836923EA1F
:101AB00001018161704700BF09B1006A7047C069C8
:101AC000704700BF4162704710B4847804F00F047F
:101AD0000C608188C1F30A01116090F90220002A8C
:101AE000B4BF4FF4005100211960C27802F0030224
:101AF000022A06D0032A08D052B941F44071196075
:101B000006E041F48071196002E041F4007119604F
:101B10005DF8044B704700BF2DE9F04F95B00D46BE
:101B20000DF1080810A9434600221A605A600833D4
:101B30008B42FAD128460521FFF794FE0646284637
:101B40000421FFF78FFE814636B30024052728467F
:101B50003946224610ABFFF79DFE837803F00F0352
:101B6000139390F90220D243D20F013B062B7ED86B
:101B7000808802EB43010DF1500E0EEB810151F80C
:101B8000481C884205D902EB43030EEB830343F85C
:101B9000480C0134B442DAD1B9F1000F6FD04FF0E4
:101BA000000BDFF810A1284659464FF0FF3210AB6A
:101BB000FFF7A0FE0646E0B1C378D3B90779C7B1F5
:101BC00000242846B178F2782346FFF7C5FE68B1B5
:101BD00013A912AA11ABFFF777FF1399002948D078
:101BE00050460901129A119B01F046FA0134A742AE
:101BF000E7D10BF1010BCB45D5D140E04746D8F8F2
:101C00000020002A46D0082A48D9012306FA03F505
:101C1000AA4202D812932DB92DE00133092BF5D138
:101C2000002043E04FF400520092504621014A4602
:101C300001F06AFAA9442DE006FA03F5954202D3B1
:101C400012932DB919E00133092BF5D100202DE0B5
:101C500000220092504621014A4601F055FAA9445B
:101C6000013408F10808082CC8D101201EE000202A
:101C70001CE000201AE0002018E0002016E04FF0E1
:101C8000400901240826DFF82CA0B7E7082A09D963
:101C90000123D1E77A68002AE2D0F7E70023129304
:101CA0003546BFE7002312933546D1E715B0BDE8AE
:101CB000F08F00BF000005402DE9F04784B00E46CC
:101CC00091469A4608460421FFF7CCFDA0B3804612
:101CD00000244FF0FF37304621463A4601ABFFF76C
:101CE00009FE054618B383784B4520D1C378534588
:101CF0001DD1077917B30024DFF84C803046A9784E
:101D0000EA782346FFF728FE60B1694603AA02ABD2
:101D1000FFF7DAFE009999B140460901039A029B48
:101D200001F0AAF90134A742E8D1012009E0013409
:101D30004445D0D1002004E0002002E0012000E072
:101D4000002004B0BDE8F08700000540F8B5044667
:101D5000036940699847002840D0054604F12006F1
:101D6000304605F095FC0746304605F07FFC0646F8
:101D700017B30346A84228BF2B462363AF4228BFB0
:101D80002F46D4F80CC06069A36AE16A1944BD42C9
:101D900021D93A46BE428CBF00230123E047BE4210
:101DA0001CD9EA1BF71BE6686069E16ABA4228BFE2
:101DB0003A460123B047F8BD236BAB420ED1636BAB
:101DC00013F0010F0AD000222263E5686069E16A1E
:101DD0000123A847F8BD3A460123E047F8BD00BFFC
:101DE00010B50446002343632030A169E26905F081
:101DF000C9FC204610BD00BFF8B505460F46144685
:101E000000F12006304605F03BFC844228BF044622
:101E100024B130463946224605F0A4FC2846FFF797
:101E200095FF2046F8BD00BF08B5203005F014FC32
:101E300008BD00BF70B50E46144600F120052846C7
:101E400005F014FC844228BF044624B128463146DC
:101E5000224605F03FFC204670BD00BF2DE9F04151
:101E600005460E4690461F468B1E032B00F29580BA
:101E7000DFE803F0026981770378002B40F08D8062
:101E8000DFB18269974209D3C36913449F4205D2E7
:101E90002030414605F03EFC00243FE005F12006DD
:101EA000304605F0EDFB4446804528BF04463046E9
:101EB0003946224605F056FC30E0036940699847F0
:101EC000074605F12004204605F0EAFB02466B6A4E
:101ED000E96AEE68686919440123B047064618B1FB
:101EE0002046314605F016FCB74212D9204605F0CF
:101EF000D7FB024678B16B6AE96AEE6868691944F3
:101F00000123B047014640B1204605F003FC002400
:101F100004E0002402E0002400E0002405F1200693
:101F2000304605F0A3FB0246AB6AD5F82CE06F689B
:101F3000A86802217344B8470146304605F0DAFB31
:101F40002046BDE8F08144688068032100221346E2
:101F5000A047044605F1200005F088FB2044BDE8B9
:101F6000F0810378CBB12030414605F0C3FB284611
:101F7000FFF7ECFE11E003787BB9203005F090FB11
:101F8000804506D86B6AEA6A13443B604046BDE868
:101F9000F08100203860BDE8F0816C68A8683146A7
:101FA00042463B46A047BDE8F08100BF08B5054B5F
:101FB0005970054B5A60012902D80AB10020904798
:101FC00008BD00BF04040020E405002038B5044625
:101FD0000D46042101F020FA00F0FC0040EA050261
:101FE00020460421D2B201F029FA2046072101F04F
:101FF00013FA00F08F0040EA152220460721D2B2E2
:1020000001F01CFA20460A2101F006FA00F01F0038
:1020100040EA154220460A21D2B201F00FFA38BD3B
:10202000013901238B40D0F8D420134207D1D0F8D6
:10203000D0201340002B14BF042000207047012043
:10204000704700BFD0F8D43023EA0101C0F8D410A3
:10205000704700BFC9B130B40B460022012513F010
:10206000010F0CD005FA02F1D0F8D04024EA0104A7
:10207000C0F8D040D0F8D4402143C0F8D4105B0859
:1020800002D00132082AEAD130BC7047704700BF45
:10209000704700BF704700BF704700BF0020704707
:1020A00038B504460D46006801F07EF9691E6318D4
:1020B000002283F8882004EB85056A6001238B40A9
:1020C000DB43D4F8D0101940C4F8D010D4F8D410A1
:1020D0000B40C4F8D4306A6238BD00BF2DE9F0412E
:1020E0000546884617461E4690F8883033B100F101
:1020F0008803012413F8012FA2BB00E00024286804
:10210000214601F051F92B1983F8888005EB8405ED
:10211000AF6216F0800F18D00823AB6006F04303BF
:10212000012B0CBF0A230C23C5F8903016F0400F8A
:1021300007D106F00306012E03D01423C5F8B030F2
:102140000DE01623C5F8B03009E00A23AB6042F277
:102150000803C5F8903042F21103C5F8B030601C96
:10216000BDE8F0810134062CC4D10020BDE8F08127
:1021700038B504464D1E0068294601F015F920685F
:10218000294601F0FDF80123AB40DB43D4F8D02011
:102190001A40C4F8D020D4F8D4201340C4F8D43066
:1021A00038BD00BF08B50068013901F0E9F808BD85
:1021B00008B50068013901F0DBF808BD70B50446C8
:1021C0000D46406801F022FC064610B1606801F03F
:1021D000E7FB013D0123AB40D4F8D0201A43C4F8FB
:1021E000D020D4F8D42022EA0303C4F8D4302068E5
:1021F000294601F0BDF82068294601F0CDF816B156
:10220000606801F097FB70BD12F0030F40F085800D
:102210002DE9F0411D4604464F1E0123BB40D0F876
:10222000D0001843C4F8D000D4F8D40020EA030347
:10223000C4F8D43004EB81067264756620683946B0
:1022400001F0CEF8206839462A4601F0CFF8736ACB
:102250009D4236D9B5FBF3F203FB125303B10132B1
:1022600004EB0708206898F8881001F06BF82068E4
:1022700098F88810D6F8AC2000F072FF73682068D8
:10228000394698F8882043F0040301F095F8736804
:1022900013F0020F07D0206898F888104FF400520E
:1022A00000F08AFF06E0E319206893F88810002206
:1022B00000F082FF2068394601F06EF82846BDE83C
:1022C000F08104EB0708206898F88810D6F88C2075
:1022D00000F046FF2068394698F88820736801F0BE
:1022E0006BF8736813F0020F0DD0206898F888100F
:1022F0004FF4005200F060FF2068394601F04CF8BE
:102300002846BDE8F081E119206891F88810002284
:1023100000F064FF2846BDE8F0810020704700BF50
:1023200008B5006801F034F808BD00BF38B50446B0
:102330000D46006801F04CF8B0F5807F0ED0013DED
:102340000123AB40D4F8D420134209D1D4F8D020D3
:102350001340002B14BF0420002038BD022038BDDC
:10236000012038BD10B5082A0CD14B1C50F8233081
:1023700003F04063B3F1406F0CBF4FF040634FF088
:1023800040431AE0102A0CD14B1C50F8233003F0C4
:102390004063B3F1406F0CBF4FF0BA434FF0554369
:1023A0000BE04B1C50F8233003F04063B3F1406F57
:1023B0000CBF4FF02E434FF06A4300EB810462687C
:1023C00022F07F4213436360481E194605F088FAE5
:1023D00010BD00BF10B5022A12D0042A13D0082A5B
:1023E00014D0102A15D0202A16D0402A17D0802ABF
:1023F00018D0B2F5807F0CBF4FF40033002313E0F8
:102400004FF4804310E04FF400430DE04FF440439D
:102410000AE04FF4803307E04FF4A03304E04FF4B8
:10242000C03301E04FF4E03300EB8104626802F056
:102430007F4213436360481E194605F051FA10BDF0
:10244000F8B5D0F8D04000252E46012714F0010F32
:1024500006D0284605F094FA10B907FA05F31E4392
:10246000640802D00135082DF0D13046F8BD00BF18
:1024700070B504460D464E1E30460F2105F008FA91
:10248000631993F8881011F0800F206801F07F0124
:1024900014BF00224FF4005200F0A0FEA319002246
:1024A00083F8882004EB85056A600123B340DB4391
:1024B000D4F8D0101940C4F8D010D4F8D4100B4080
:1024C000C4F8D4306A6270BDF8B504460D46406861
:1024D00001F09CFA074610B1606801F061FA6E1EC7
:1024E0000123B340D4F8D0201A43C4F8D020D4F844
:1024F000D42022EA0303C4F8D430013554F825303F
:1025000003F04063B3F1406F04EB0603206893F8D7
:1025100088100CBF00224FF4005200F04DFE3046F0
:1025200005F0A2F917B1606801F004FAF8BD00BF28
:102530003F2B5AD912F0030F59D12DE9F04383B044
:102540001D469046894604464E1E0123B340D0F8EE
:10255000D0201A43C0F8D020D0F8D42022EA0303B8
:10256000C0F8D43000EB8107C7F844807D6683193A
:10257000006893F8881000F0C9FE03467A6802F0FC
:102580000851B1F1085F0CBFA908294602F040626A
:10259000B2F1406F009130464FF0010106BF1A467C
:1025A0004346424605F0ACF97A6A95420FD9264473
:1025B000206896F88810B5FBF2F200F0C3FE2068A0
:1025C00096F88810D7F8AC2000F0CAFD07E0264442
:1025D000206896F88810D7F88C2000F0C1FD2046BE
:1025E0004946FFF771FF284603E0002070470020AE
:1025F000704703B0BDE8F08338B504464D1E013185
:1026000050F8213003F04063B3F1406F00EB050355
:10261000006893F888100CBF00224FF4005200F0BD
:10262000DDFD284605F02AF90123AB40DB43D4F851
:10263000D0201A40C4F8D020D4F8D4201340C4F8D5
:10264000D43038BDF8B505460F4613F080000CBFF6
:1026500001240024291991F88810002944D104E0AC
:10266000291991F8881000293ED1291981F888701C
:1026700005EB8406B262C0B1274AB26003F04302A0
:10268000012A0CBF0A220C22C6F8902013F0400F3A
:1026900007D103F00303012B03D01423C6F8B03095
:1026A00027E01623C6F8B03023E01C4BB36042F29B
:1026B0000803C6F8903042F21103C6F8B03028681B
:1026C0003946224600F026FE20460F2105F0E0F8AC
:1026D0002046B16805F004F9286839464FF40052E5
:1026E00000F07CFD601CF8BD0234052CB8D9002038
:1026F000F8BD28683946224600F00CFE20460F211E
:1027000005F0C6F82046B16805F0EAF828683946B1
:10271000002200F063FDE5E70080010C008001C0AD
:1027200008B53E4B1A683E4B9A4274D03B4B3C4A2C
:102730001A603C225A603B4AC3F8D8203A4AC3F890
:10274000DC203A4AC3F8E420394AC3F8E020394A89
:10275000C3F8F420384AC3F8F020384AC3F8E82018
:10276000374AC3F8EC20374AC3F8F820364AC3F892
:10277000FC20364AC3F80021354AC3F80421354A03
:10278000C3F80821344AC3F80C21344B1A68344B7F
:102790001340344A934202D13A22204B5A602048D7
:1027A00000F0DAFD01282FD11C4B2F4AC3F8D820A6
:1027B0002E4AC3F8DC202E4AC3F8EC202D4AC3F879
:1027C000FC202D4AC3F8F4202C4AC3F8F0202C4AF0
:1027D000C3F808212B4AC3F8E8202B4AC3F8E020AD
:1027E0002A4AC3F8E4202A4AC3F80C210CE001F875
:1027F000012F43F8042F8342F9D1084B0022C3F87C
:10280000D020C3F8D42006E0044800F18701031D5E
:1028100024300022EBE7014808BD00BFEC05002092
:1028200000000540D523000045260000F9250000E2
:10283000C92400008D2000009120000071240000B8
:102840002120000055200000412400004520000008
:102850009D200000312500006523000000E00F40AE
:102860000000FF7000000A1099200000DD20000029
:102870002D23000021230000B1210000A52100002C
:1028800009220000A1200000BD21000071210000EC
:1028900095200000024A136843F0404313607047DC
:1028A00034EF00E0084B1B786BB9084B084903F183
:1028B0001800002243F8042B41F8042B8342F9D17D
:1028C0000122014B1A707047FC060020FC07002013
:1028D000E40700200022014B1A707047FC0600201C
:1028E00010B40E4B1B682BB10C4A012352F8044F55
:1028F00044B900E00023094A42F82300084A42F89C
:10290000231002E00133062BF0D1062B4FF0FF30ED
:1029100018BF00205DF8044B704700BFFC07002083
:10292000E4070020F8B50746084A5368034453609B
:10293000074C084D04F1180654F8043B13B12868FD
:10294000394698470435B442F6D1F8BDFC0600205C
:10295000FC070020E407002000B585B0FDF79EFDD0
:10296000122000F0E7FF1E4C1E4D1F4E2368012B66
:102970000BD100F07DFF022323600120FDF79EFDB7
:10298000FDF7A2FF0520FDF771FC2368022BEDD1B6
:102990006368012BEAD1002363606B78342B10D07D
:1029A000352B19D0332BE1D1E879A9796A792B79C4
:1029B0000093EB780193AB7802930123FDF73CFE83
:1029C000D4E7AB783370EB7873702B79B3706B7995
:1029D000F3700423A360C9E7FDF7E6FFC6E700BF75
:1029E00008070020AC0C00201808002038B5374834
:1029F000012100F053FE364B186010F0800F17D005
:102A0000344B1B68002B5CD1334C204604210A4612
:102A100000F054FE4FF4FA70FDF728FC2046042124
:102A2000002200F04BFE01232A4AD3602B4A536058
:102A3000274B1B6813F0400F3DD0264B1B6843B358
:102A4000254C20460221002200F038FE20460221BB
:102A50000A4600F033FEC820FDF708FC204602219C
:102A6000002200F02BFE6420FDF700FC204602212E
:102A70000A4600F023FEC820FDF7F8FB0025154BA1
:102A80001D6000F017FF204602212A4600F016FEC6
:102A900011E0114C204602210A4600F00FFE4FF4CF
:102AA000FA70FDF7E3FB01220A4B1A60204602216F
:102AB000002200F003FE0548054B196800F0F6FD02
:102AC00038BD10F0400FBBD1F5E700BF00600040FB
:102AD000740C002008070020004002400804002079
:102AE000C3B29B0043F08442C0F30720054B03446C
:102AF000C3F3130342EA43131868003018BF0120E0
:102B0000704700BF00EA0F4082B0C2B2920042F0AC
:102B10008443C0F307200B4A0244C2F3130243EA82
:102B200042120123136000230193019B0F2B05D850
:102B3000019B01330193019B0F2BF9D900231360F3
:102B400002B0704700E50F40C3B29B0043F08442DF
:102B5000C0F30720044B0344C3F3130342EA4313B7
:102B600001221A60704700BF00E60F40C3B29B000D
:102B700043F08442C0F30720044B0344C3F3130320
:102B800042EA431300221A60704700BF00E60F407C
:102B900001387FF4FDAF704770B5454D2B68454A4D
:102BA000116823F4800444F4006441F400662C604E
:102BB000166013F0010F16D010F0010F13D160F062
:102BC00001031C404FF480723B4B1A602C604FF4A1
:102BD0000023103D01E0013B69D02A6812F4807F98
:102BE000F9D0002B63D024F4FE6400F4FE63234389
:102BF00021F0004222F0700242F400612F4A0240AC
:102C00000A4300F0080142EAC10229490B60103171
:102C10000A6023F4005300F400510B4322F40052E5
:102C20004025254C25600A4304D522490A60103905
:102C30000B6003E01E490B6010310A6023F0F8635B
:102C400023F001031E4D05401D4322F0FC5200F00D
:102C5000FC54224310F0804F07D045F4800522F445
:102C60008002184C044014431DE022F080441AE016
:102C70000A6812F0010F01D1013BF9D125F400657A
:102C800024F400640A4B1D6010331C601020FFF711
:102C90007FFF70BD0C4B1B6813F0010FEED147F6A0
:102CA000FF730949E4E710F4006FF3D0EAE770BD61
:102CB00060E00F4070E00F4058E00F4030000080AF
:102CC0000100C0070000404068E10F4030B4574B9E
:102CD0001B68574A116800290FDA01F07002202A98
:102CE00020D003D8BAB1102A22D089E0302A00F0CF
:102CF0009180702A00F0918082E003F03002202A57
:102D000007D003D83AB1102A0ED07BE0302A79D10F
:102D100086E0484813E0C3F38412474800EB820280
:102D2000106B02E0434800E04448002907DA00E065
:102D3000424811F4006F05D04FF0FF323DE013F42C
:102D4000006F61D13E4A14680432156805F01F0215
:102D500001325200C5F3042505FB0222B0FBF2F25A
:102D6000C4F30900C4F3892404FB02F4A40A00FBA1
:102D7000024043F48003334A126802F47042B2F511
:102D8000804F12D006D8B2F5005F0AD0B2F5405F8E
:102D900009D010E0B2F5E04F09D0B2F5104F08D0DD
:102DA00009E0294A09E0294A07E0294A05E0294AB9
:102DB00003E0294A01E04FF0FF3213F4800F1BD0EB
:102DC000002914DA11F0804F09D011F4006F06D1F8
:102DD0004000C1F386510131B0FBF1F00CE0C1F3CA
:102DE000C5510131B0FBF1F006E04FF0FF32C3F303
:102DF000C3530133B0FBF3F0904228BF104612E0FA
:102E0000002010E000200EE013F4800FEDD14FF011
:102E1000FF32F1E747F230508BE74FF4004088E78C
:102E200047F230508BE730BC704700BF60E00F4086
:102E300070E00F4000093D00787A00000024F400A3
:102E400060E10F4010E00F4000B4C40480F0FA02CB
:102E5000005A620240787D01002D3101024A136858
:102E600023F480431360704770E00F40024A1368F8
:102E700043F480431360704770E00F4021B1437802
:102E800043F0040343707047437803F0FB0343703F
:102E9000704700BF11F0FF0F03D0C37A23EA01038C
:102EA000C37211F4807F1CBF0023C0F8083411F4F2
:102EB000007F02D00022014B1A6070474804054091
:102EC00011F0FF0F03D0C37A0B43DBB2C37211F4CE
:102ED000807F1CBF0123C0F8083411F4007F02D0AA
:102EE0000122014B1A60704748040540837ADBB227
:102EF000D0F80C2412F0010F07D043F4807390F83F
:102F00000C2442F0010280F80C24074A126812F0E7
:102F1000010F06D043F4007303490A6842F001022E
:102F20000A601846704700BF4C040540C3889BB236
:102F300023EA0103C38003899BB2490C490423EAB5
:102F400011410181704700BFC3880B439BB2C3800E
:102F500003899BB2490C490443EA1141018170473E
:102F600043889BB2808843EA004070470144B1F82F
:102F700002319BB2B1F8060143EA0040704700BF3E
:102F8000D9B912F0010F05D090F8023143F0400397
:102F900080F8023112F0100F05D090F8023143F0A2
:102FA000800380F8023112F0040F17D090F802313C
:102FB00003F0FB0380F802317047084490F80231B7
:102FC00002F0240123EA010380F8023190F806316F
:102FD00002F4980223EA124280F80621704700BFEB
:102FE00031B990F8023143F0600380F80231704744
:102FF000B2F5005F06D100F58170425C42F010022C
:103000004254704700F58370425C42F02002425403
:10301000704700BF31B990F8023103F0FB0380F82C
:1030200002317047B2F5005F0AD100F58170425C51
:1030300002F0CF024254425C42F0400242547047D8
:1030400000F58370425C02F09F024254425C42F001
:1030500080024254704700BF437843F040034370FE
:10306000704700BF437803F0BF034370704700BF51
:10307000C9B20170704700BF13F4005F1DD008444F
:1030800092B2A0F8002103F00102D20113F0100F58
:1030900002D042F0140204E013F0080F18BF42F00F
:1030A000100213F4407F08BF42F04002D2B280F811
:1030B0000321402380F802317047084492B2A0F8FF
:1030C000042103F00402002A0CBF0022802213F026
:1030D000100F02D042F0280204E013F0080F18BFCE
:1030E00042F0200213F0200F18BF42F0100213F438
:1030F000407F08BF42F04002D2B280F8072180230F
:1031000080F80631704700BF10B4019C14F4005FD2
:1031100011D0847BE4B2C1F307118173DBB280F874
:1031200062308473837BDBB28173C2F3CF02A0F879
:103130006420837310E0847BE4B2C1F307118173D0
:10314000DBB280F863308473837BDBB28173C2F3BC
:10315000CF02A0F8662083735DF8044B704700BF70
:1031600012F4005F11D000F20310435C03F07B0304
:1031700012F0100F18BF43F0040312F0010F18BF34
:1031800043F08003DBB24354704700F20710435C06
:1031900003F0370312F0100F18BF43F0080312F0CA
:1031A000040F18BF43F0800312F0020F18BF43F062
:1031B0004003DBB24354704712F4005F06D000F2C4
:1031C0000310435C43F010034354704700F20710B0
:1031D000435C43F020034354704700BF12F4005F88
:1031E00006D000F20310435C03F0EF034354704732
:1031F00000F20710435C03F0DF034354704700BF45
:103200000B4611B101F5837201E04FF48172125A3D
:1032100012F0010F1DBF00F58470C05A80B200206B
:10322000704700BF30B40D4611B101F5837101E064
:103230004FF48171095A11F0010F04D100221A6074
:103240004FF0FF3016E000F584714C5BA4B21968B2
:103250008C4228BF0C461C6000F1200101EB950157
:103260003CB110190B7802F8013B8242FAD10020E0
:1032700000E0002030BC70470B4631B9002A14BF73
:103280004823402380F80231704700F58370425C88
:1032900002F0FE024254704730B400290CBF0224F1
:1032A000012400F581756D5C25420BD1203000EBC7
:1032B000910153B1134412F8014B0C709A42FAD1A8
:1032C000002003E04FF0FF3000E0002030BC7047EA
:1032D0000B4631B990F8021111F0020F0FD1D2B2A2
:1032E00007E000F58171C95C11F0010F0AD1C2F34A
:1032F000072200F58170D2B2C254002070474FF00F
:10330000FF3070474FF0FF30704700BF203000EBB8
:103310009100704710B49200D0F850440F239340AE
:1033200024EA0303090991401943C0F850145DF8D9
:10333000044B7047032380F81C347047002380F847
:103340001C34704700F541706FF0404303EB1111DE
:1033500040F82120704700BFD0F8C00F00F00F00E8
:10336000704700BF01390A43C0F8C82F704700BF3B
:1033700000F501700901435843F0080343507047BA
:1033800000F501700901435823F0080343507047CA
:10339000D0F80002704700BF00F5017009014358E2
:1033A00043F001034350704700F501700901435891
:1033B00023F001034350704710B400F50170090178
:1033C00000244450134343505DF8044B704700BF42
:1033D00000F501700901405800F48070704700BF8B
:1033E00000F5027009014250704700BF00F50370FC
:1033F00009014250704700BFD0F8C43F43F4803306
:10340000C0F8C43F704700BFD0F8C43F23F48033F6
:10341000C0F8C43F704700BF80F8751000F1760215
:10342000052380F87630137813F0020FFBD00023C9
:1034300080F8763090F87400704700BF80F87510FF
:1034400080F8742000F17602012380F8763013783A
:1034500013F0020FFBD0002380F87630704700BFD6
:10346000C9B280F86213704790F8623343F00D03DD
:1034700080F86233704700BF90F8623303F0FE03B8
:1034800080F86233704700BF90F86403704700BF54
:1034900090F863331943C9B280F86313704700BFD3
:1034A00008B50448FFF722FD01460020FEF700F9A9
:1034B00008BD00BF0000054010B412F0010F00F578
:1034C0008064D0F8003414BF0B438B43236012F0A8
:1034D000020F00F58463D0F8202414BF114322EAC0
:1034E000010119605DF8044B704700BF10B412F081
:1034F000010F00F58164D0F8083414BF0B438B43EF
:10350000236012F0020F00F20444D0F8043414BF18
:103510000B438B43236012F0040F00F20C43D0F8EE
:103520000C4414BF214324EA0101196012F4803FC6
:1035300000F5A762D0F8383514BF43F0010323F03B
:10354000010313605DF8044B704700BF2DE9F043A1
:10355000C2F3411C00240F464FF0030E3E4641FAD1
:1035600004F515F0010F11D0D0F8C45F4FEA4408FC
:103570000EFA08F925EA0905C0F8C45FD0F8C45F5F
:103580000CFA08F848EA0505C0F8C45F0134082CB5
:10359000E4D112F0010F00F5A065D0F8004514BF8A
:1035A0000C43B4432C6012F0020F00F20455D0F823
:1035B000044514BF0C43B4432C6012F0040F00F513
:1035C000A165D0F8084514BF0C43B4432C6012F039
:1035D000080F00F5A365D0F8184514BF0C43B44399
:1035E0002C6012F0100F00F23C54D0F83C2514BFB0
:1035F0000A43B243226013F0010F00F20C54D0F8DA
:103600000C2514BF0A43B243226013F0020F00F5E9
:10361000A264D0F8102514BF0A43B243226013F00D
:10362000040F00F21454D0F8142514BF0A43B24317
:10363000226013F0080F00F21C54D0F81C2514BFB0
:103640000A43B243226013F4007F00F24454D0F8DE
:10365000442514BF0A43B243226013F4407F00F5AF
:10366000A864D0F8402514BF0A43B24322602BB9A6
:1036700000F5A562D0F82835194305E000F5A562EC
:10368000D0F8283523EA06011160BDE8F08300BFB9
:10369000D0F810341943C0F81014704711B1D0F8A5
:1036A00018047047D0F81404704700BFC0F81C1409
:1036B000704700BF50F82100704700BF40F821203C
:1036C000704700BF38B505460C460022FFF7F4FEF0
:1036D0002846214601220823FFF738FF38BD00BFE6
:1036E00038B505460C4601220823FFF72FFF284670
:1036F00021460122FFF7E0FE38BD00BF38B5054680
:103700000C460222FFF7D8FE284621460122092353
:10371000FFF71CFF38BD00BF38B505460C46022236
:10372000FFF7CAFE2846214601220823FFF70EFFB5
:1037300038BD00BF38B505460C460222FFF7BCFE77
:103740002846214601220823FFF700FF38BD00BFAD
:1037500038B505460C460022FFF7AEFE2846214646
:1037600001220023FFF7F2FE38BD00BF10B4C0F302
:1037700007420F4B1968012393400B420D4B03EB9B
:10378000C20214BFD2F88411D2F88011D1F82C25CE
:10379000C0F307240F23A34022EA030300F00F0025
:1037A000A0401843C1F82C055DF8044B704700BFDA
:1037B0006CE00F403C7C000008B5012918D041B1F5
:1037C00048F20302914223D048F20402914217D0FA
:1037D00025E00122134B1A70134802210A46FFF715
:1037E0006DFF1248FEF720FB1148FEF71DFB16E0A7
:1037F00000220C4B1A700C480121FFF75FFF0EE00E
:103800000C4A106818609188927999809A7106E044
:10381000084A1868106099889B79918093710020FC
:1038200008BD00BF200700200040024040040020E7
:1038300078040020380400200020704702290ED1AF
:1038400010B5084C084821460922FEF7F3FA237800
:10385000302B02D10122054B1A60002010BD002040
:10386000704700BFAC0C0020780400200C0700203B
:1038700008B53C200B4900F041F83C2000F05AF814
:1038800000F02CF8002005210246FEF78FFB0648C9
:10389000FEF7A6FA0548FEF7A3FA0020044903F054
:1038A000E7FD08BDA134000040040020780400209A
:1038B000B004002008B53C2000F072F8014803F085
:1038C000FBFD08BDB004002008B503460A460248C7
:1038D0001946FEF791FA08BD4004002008B503F030
:1038E0008DFF003018BF012008BD00BF08B503F0F0
:1038F00081FF003018BF012008BD00BF70B40B4B22
:103900001B680B4EB3420CD0084B1C6806F51B75A8
:103910003346A41BE25843F8042BAB42FAD1034BC5
:103920001E60034B43F8201070BC704708ED00E0A8
:1039300000000020042805D1164A136843F48033A0
:1039400013607047052805D1124A136843F4003309
:1039500013607047062805D10E4A136843F480238C
:10396000136070470F2805D10B4A136843F0020318
:10397000136070470F280BD910384209074B03EB2F
:103980008203D3F8BC2000F01F00012383401360A2
:10399000704700BF24ED00E010E000E04C7E000026
:1039A000042805D1164A136823F480331360704746
:1039B000052805D1124A136823F4003313607047B9
:1039C000062805D10E4A136823F48023136070473C
:1039D0000F2805D10B4A136823F0020313607047C8
:1039E0000F280BD910384209074B03EB8203D3F899
:1039F000D02000F01F00012383401360704700BFF8
:103A000024ED00E010E000E04C7E0000042804D12A
:103A1000164B186800F480307047052804D1134B0A
:103A2000186800F400307047062804D10F4B18685E
:103A300000F4802070470F2804D10D4B186800F067
:103A4000020070470F280ED910384209094B03EBCA
:103A50008203D3F8BC301B6800F01F00012202FA79
:103A600000F0184070470020704700BF24ED00E0D0
:103A700010E000E04C7E000010B4002B0CBF0023CF
:103A800004234360019BB1FBF3F100240234B1FB3A
:103A9000F4F3013BFF2BF9D8046102F030040299E2
:103AA000013921439201D2B20A4342EA032303605F
:103AB0005DF8044B704700BF436843F00203436066
:103AC000704700BFC36813F0020F1ABF8160012066
:103AD00000207047C36813F0040FFBD083680B60AD
:103AE000704700BFC0F8C81F704700BF08B5064B3D
:103AF000012159701B7803EB4303044A02EB830353
:103B00005868FDF7DFFF08BDE0100020348000009A
:103B100038B50446FFF7DAF8184BA3FB0030800CE9
:103B2000174B1860174B1C701B7803EB4303164AA6
:103B300052F82300FFF708F8124D134C2B7803EBD3
:103B4000430354F82300FEF7CBFF0028F6D00D4DB9
:103B50002B780D4C03EB430304EB830358682121BE
:103B6000FDF758FF2B7803EB430304EB83046068F5
:103B7000FF21064AFDF78AFF38BD00BF83DE1B43E5
:103B800010050020E010002034800000ED3A000015
:103B900010B50446407AFFF7BBFF2068FEF7D4FF5C
:103BA0006068217A01220923FFF7D0FC6068217A3E
:103BB000FFF788FD10BD00BF2DE9F04105464068C4
:103BC000297AFFF78DFD6868297A0022FFF776FDD4
:103BD000914B1A684FF4ED7303FB02F28F4E0027EE
:103BE000777033788E4C03EB430304EB8303586800
:103BF000FF21013AFDF740FF337803EB430304EB69
:103C000083035868FF21FDF7FDFE337803EB430380
:103C100004EB8303D3F80480337803EB430304EB12
:103C2000830358683946FDF747FF01464046FDF7D4
:103C300049FF337803EB430304EB83039868FFF7F2
:103C400079FE337803EB430304EB830460680121BE
:103C5000FDF728FFFFF742FE3246537813F0FF0FBF
:103C6000FBD06E4E33786E4C03EB430304EB8303BF
:103C700058680121FDF71AFF337803EB430304EB87
:103C800083039868FFF78CFE6868297A012209236C
:103C9000FFF75CFC6868297AFFF714FD5E4B1A6831
:103CA0004A2303FB02F200277770337803EB4303C8
:103CB00004EB83035868FF21013AFDF7DDFE3378FA
:103CC00003EB430304EB83035868FF21FDF79AFEDF
:103CD000337803EB430304EB8303D3F80480337896
:103CE00003EB430304EB830358683946FDF7E4FE16
:103CF00001464046FDF7E6FE337803EB430304EB51
:103D000083039868FFF716FE337803EB430304EB55
:103D1000830460680121FDF7C5FEFFF7DFFD324631
:103D2000537813F0FF0FFBD03C4E33783C4C03EB41
:103D3000430304EB830358680121FDF7B7FE337892
:103D400003EB430304EB83039868FFF729FE6868DD
:103D5000297AFFF7AFFC05462F4B1A684FF4C5735D
:103D600003FB02F200277770337803EB430304EB85
:103D700083035868FF21013AFDF77EFE337803EB99
:103D8000430304EB83035868FF21FDF73BFE3378C0
:103D900003EB430304EB8303D3F80480337803EB92
:103DA000430304EB830358683946FDF785FE01465B
:103DB0004046FDF787FE337803EB430304EB8303B0
:103DC0009868FFF7B7FD337803EB430304EB8304F4
:103DD00060680121FDF766FEFFF780FD32465378EB
:103DE00013F0FF0FFBD00D4E33780D4C03EB430364
:103DF00004EB830358680121FDF758FE337803EB89
:103E0000430304EB8304A068FFF7CAFDB5FA85F00D
:103E10004009BDE8F08100BF10050020E01000203F
:103E2000348000002DE9F84F054608264427DFF8C6
:103E3000A481674C6868297AFFF752FC17F0010FDC
:103E400000F0CC806868297A0022FFF737FCD8F8A8
:103E500000204FF0000A84F801A02378DFF8789161
:103E600003EB430309EB83035868FF21013AFDF795
:103E700003FE237803EB430309EB83035868FF2118
:103E8000FDF7C0FD237803EB430309EB8303D3F86D
:103E900004B0237803EB430309EB830358685146CE
:103EA000FDF70AFE01465846FDF70CFE237803EBAA
:103EB000430309EB83039868FFF73CFD237803EB8A
:103EC000430309EB8309D9F804000121FDF7EAFD5A
:103ED000FFF704FD637813F0FF0FFBD02378DFF8C2
:103EE000F89003EB430309EB830358680121FDF7C6
:103EF000DDFD237803EB430309EB83039868FFF7A9
:103F00004FFD6868297A01220923FFF71FFB6868C3
:103F1000297AFFF7D7FBD8F80020352303FB02F2FC
:103F20004FF0000A84F801A0237803EB430309EB68
:103F300083035868FF21013AFDF79EFD237803EBC8
:103F4000430309EB83035868FF21FDF75BFD2378EA
:103F500003EB430309EB8303D3F804B0237803EBAB
:103F6000430309EB830358685146FDF7A5FD01465D
:103F70005846FDF7A7FD237803EB430309EB8303C2
:103F80009868FFF7D7FC237803EB430309EB830919
:103F9000D9F804000121FDF785FDFFF79FFC637848
:103FA00013F0FF0FFBD02378DFF82C9003EB4303D3
:103FB00009EB830358680121FDF778FD237803EBB3
:103FC000430309EB8309D9F80800FFF7E9FCCAE0CD
:103FD000E010002010050020348000006868297A75
:103FE0000022FFF76BFBD8F80020352303FB02F219
:103FF0004FF0000A84F801A02378DFF8D09303EB98
:10400000430309EB83035868FF21013AFDF734FDB0
:10401000237803EB430309EB83035868FF21FDF783
:10402000F1FC237803EB430309EB8303D3F804B0DB
:10403000237803EB430309EB830358685146FDF7EC
:104040003BFD01465846FDF73DFD237803EB430356
:1040500009EB83039868FFF76DFC237803EB4303B8
:1040600009EB8309D9F804000121FDF71BFDFFF7D7
:1040700035FC637813F0FF0FFBD02378DFF84C9307
:1040800003EB430309EB830358680121FDF70EFDA1
:10409000237803EB430309EB83039868FFF780FC65
:1040A0006868297A01220923FFF750FA6868297A9B
:1040B000FFF708FBD8F800204FF0000A84F801A0B1
:1040C000237803EB430309EB83035868FF21013A8C
:1040D000FDF7D2FC237803EB430309EB8303586815
:1040E000FF21FDF78FFC237803EB430309EB8303E8
:1040F000D3F804B0237803EB430309EB8303586838
:104100005146FDF7D9FC01465846FDF7DBFC237804
:1041100003EB430309EB83039868FFF70BFC237859
:1041200003EB430309EB8309D9F804000121FDF7F0
:10413000B9FCFFF7D3FB637813F0FF0FFBD02378B4
:10414000DFF8889203EB430309EB830358680121EE
:10415000FDF7ACFC237803EB430309EB8309D9F8A3
:104160000800FFF71DFC7F08013E16F0FF067FF4F4
:1041700061AE944F944C6868297AFFF7B1FA686889
:10418000297A0022FFF79AFA3A684FF0000884F87B
:10419000018023788D4E03EB430306EB83035868BD
:1041A000FF21013AFDF768FC237803EB430306EB9C
:1041B00083035868FF21FDF725FC237803EB4303B5
:1041C00006EB8303D3F80490237803EB430306EB59
:1041D000830358684146FDF76FFC01464846FDF7EA
:1041E00071FC237803EB430306EB83039868FFF726
:1041F000A1FB237803EB430306EB830670680121E0
:10420000FDF750FCFFF76AFB637813F0FF0FFBD05C
:1042100023786E4E03EB430306EB830358680121BA
:10422000FDF744FC237803EB430306EB8303986814
:10423000FFF7B6FB6868297A01220923FFF786F9A0
:104240006868297AFFF73EFA3A6852004FF0000892
:1042500084F80180237803EB430306EB830358685B
:10426000FF21013AFDF708FC237803EB430306EB3B
:1042700083035868FF21FDF7C5FB237803EB430355
:1042800006EB8303D3F80490237803EB430306EB98
:10429000830358684146FDF70FFC01464846FDF789
:1042A00011FC237803EB430306EB83039868FFF7C5
:1042B00041FB237803EB430306EB8306706801217F
:1042C000FDF7F0FBFFF70AFB637813F0FF0FFBD05D
:1042D00023783E4E03EB430306EB8303586801212A
:1042E000FDF7E4FB237803EB430306EB83039868B5
:1042F000FFF756FB6868297AFFF7DCF995F8088024
:1043000000EA08083B6803EBC30203EB82024FF0AC
:10431000000984F80190237803EB430306EB830341
:104320005868FF21013AFDF7A7FB237803EB43030D
:1043300006EB83035868FF21FDF764FB237803EB4A
:10434000430306EB8303D3F804A0237803EB430372
:1043500006EB830358684946FDF7AEFB014650461D
:10436000FDF7B0FB237803EB430306EB8303986868
:10437000FFF7E0FA237803EB430306EB830670684C
:104380000121FDF78FFBFFF7A9FA637813F0FF0F08
:10439000FBD023780D4E03EB430306EB83035868F1
:1043A0000121FDF783FB237803EB430306EB830630
:1043B000B068FFF7F5FAB8F1000F3FF4DCAEBDE8E6
:1043C000F88F00BF10050020E010002034800000AE
:1043D0002DE9F04F83B0054601914B1E08310022B4
:1043E00003F8012F8B42FBD108274FF0BE08DFF8FE
:1043F0009C91644C6868297AFFF772F918F0010FF4
:1044000000F0C6806868297A0022FFF757F9D9F8CA
:1044100000204FF0000A84F801A023785A4E03EBE5
:10442000430306EB83035868FF21013AFDF724FBA1
:10443000237803EB430306EB83035868FF21FDF762
:10444000E1FA237803EB430306EB8303D3F804B0CC
:10445000237803EB430306EB830358685146FDF7CB
:104460002BFB01465846FDF72DFB237803EB430356
:1044700006EB83039868FFF75DFA237803EB4303A9
:1044800006EB830670680121FDF70CFBFFF726FAA7
:10449000637813F0FF0FFBD023783B4E03EB43030D
:1044A00006EB830358680121FDF700FB237803EB3B
:1044B000430306EB83039868FFF772FA6868297A6A
:1044C00001220923FFF742F86868297AFFF7FAF812
:1044D000D9F80020352303FB02F24FF0000A84F8DC
:1044E00001A0237803EB430306EB83035868FF2105
:1044F000013AFDF7C1FA237803EB430306EB83038C
:104500005868FF21FDF77EFA237803EB430306EB9F
:104510008303D3F804B0237803EB430306EB830350
:1045200058685146FDF7C8FA01465846FDF7CAFAE1
:10453000237803EB430306EB83039868FFF7FAF94C
:10454000237803EB430306EB830670680121FDF734
:10455000A9FAFFF7C3F9637813F0FF0FFBD02378B4
:10456000094E03EB430306EB830358680121FDF773
:104570009DFA237803EB430306EB8306B068FFF74D
:104580000FFAC4E0E0100020348000001005002085
:104590006868297A0022FFF791F8D9F800203523BE
:1045A00003FB02F24FF0000A84F801A02378CC4EFE
:1045B00003EB430306EB83035868FF21013AFDF741
:1045C0005BFA237803EB430306EB83035868FF2170
:1045D000FDF718FA237803EB430306EB8303D3F8C4
:1045E00004B0237803EB430306EB8303586851467A
:1045F000FDF762FA01465846FDF764FA237803EBAB
:10460000430306EB83039868FFF794F9237803EBE1
:10461000430306EB830670680121FDF743FAFFF7B9
:104620005DF9637813F0FF0FFBD02378AC4E03EBFA
:10463000430306EB830358680121FDF737FA23781B
:1046400003EB430306EB83039868FFF7A9F9686857
:10465000297A01220923FEF779FF6868297AFFF792
:1046600031F8D9F800204FF0000A84F801A023782F
:1046700003EB430306EB83035868FF21013AFDF780
:10468000FBF9237803EB430306EB83035868FF2110
:10469000FDF7B8F9237803EB430306EB8303D3F864
:1046A00004B0237803EB430306EB830358685146B9
:1046B000FDF702FA01465846FDF704FA237803EBAA
:1046C000430306EB83039868FFF734F9237803EB81
:1046D000430306EB830670680121FDF7E3F9FFF75A
:1046E000FDF8637813F0FF0FFBD023787C4E03EBCB
:1046F000430306EB830358680121FDF7D7F92378BC
:1047000003EB430306EB8306B068FFF749F94FEA72
:104710005808013F17F0FF077FF46CAE4FF0000A16
:10472000D146DFF8C4B16F4C5FFA8AF86868297A1D
:10473000FEF7D6FF6868297A0022FEF7BFFFDBF894
:104740000020002767702378654E03EB430306EBD8
:1047500083035868FF21013AFDF78EF9237803EBB4
:10476000430306EB83035868FF21FDF74BF92378D9
:1047700003EB430306EB83035B680093237803EBAF
:10478000430306EB830358683946FDF795F9014664
:104790000098FDF797F9237803EB430306EB8303B7
:1047A0009868FFF7C7F8237803EB430306EB83060B
:1047B00070680121FDF776F9FFF790F8637813F040
:1047C000FF0FFBD02378464E03EB430306EB830336
:1047D00058680121FDF76AF9237803EB430306EBE0
:1047E00083039868FFF7DCF86868297A01220923B7
:1047F000FEF7ACFE6868297AFEF764FFDBF800205C
:10480000520000276770237803EB430306EB830312
:104810005868FF21013AFDF72FF9237803EB430392
:1048200006EB83035868FF21FDF7ECF8237803EBD0
:10483000430306EB83035B680093237803EB430396
:1048400006EB830358683946FDF736F901460098B0
:10485000FDF738F9237803EB430306EB83039868ED
:10486000FFF768F8237803EB430306EB83067068D1
:104870000121FDF717F9FFF731F8637813F0FF0F07
:10488000FBD02378164E03EB430306EB83035868F3
:104890000121FDF70BF9237803EB430306EB8303B8
:1048A0009868FFF77DF86868297AFEF703FF2B7A8E
:1048B000184214BF01270027DBF8003003EBC302C6
:1048C00003EB820200236370237803EB430306EBC0
:1048D00083035868FF21013AFDF7CEF806E000BFD8
:1048E00034800000E010002010050020237803EB46
:1048F000430306EB83035868FF21FDF783F8237811
:1049000003EB430306EB83035B680093237803EB1D
:10491000430306EB830358680021FDF7CDF80146F9
:104920000098FDF7CFF8237803EB430306EB8303EE
:104930009868FEF7FFFF237803EB430306EB83063B
:1049400070680121FDF7AEF8FEF7C8FF637813F039
:10495000FF0FFBD02378184E03EB430306EB8303D2
:1049600058680121FDF7A2F8237803EB430306EB17
:104970008306B068FFF714F809F001039F424FEA7D
:1049800059091CBF89F08C095FFA89F94FEAD802EE
:1049900008F0070807FA08F701998B5C1F438F544A
:1049A0000AF1010ABAF1480F7FF4BEAEB9FA89F0F4
:1049B000400903B0BDE8F08F348000002DE9F84FC6
:1049C00005460826CC27DFF84083CE4C6868297A54
:1049D000FEF786FE17F0010F00F0C6806868297A9E
:1049E0000022FEF76BFED8F800204FF0000A84F892
:1049F00001A02378DFF8149303EB430309EB83034F
:104A00005868FF21013AFDF737F8237803EB430399
:104A100009EB83035868FF21FCF7F4FF237803EBCD
:104A2000430309EB8303D3F804B0237803EB430378
:104A300009EB830358685146FDF73EF80146584696
:104A4000FDF740F8237803EB430309EB83039868F1
:104A5000FEF770FF237803EB430309EB8309D9F8D2
:104A600004000121FDF71EF8FEF738FF637813F00C
:104A7000FF0FFBD02378DFF8949203EB430309EB9D
:104A8000830358680121FDF711F8237803EB4303F2
:104A900009EB83039868FEF783FF6868297A01228F
:104AA0000923FEF753FD6868297AFEF70BFED8F854
:104AB0000020352303FB02F24FF0000A84F801A026
:104AC000237803EB430309EB83035868FF21013A82
:104AD000FCF7D2FF237803EB430309EB8303586809
:104AE000FF21FCF78FFF237803EB430309EB8303DC
:104AF000D3F804B0237803EB430309EB830358682E
:104B00005146FCF7D9FF01465846FCF7DBFF2378F6
:104B100003EB430309EB83039868FEF70BFF23784D
:104B200003EB430309EB8309D9F804000121FCF7E7
:104B3000B9FFFEF7D3FE637813F0FF0FFBD02378A5
:104B4000DFF8C89103EB430309EB830358680121A5
:104B5000FCF7ACFF237803EB430309EB8309D9F897
:104B60000800FEF71DFFC4E06868297A0022FEF7FE
:104B7000A5FDD8F80020352303FB02F24FF0000A10
:104B800084F801A02378DFF8849103EB430309EB59
:104B900083035868FF21013AFCF76EFF237803EB8B
:104BA000430309EB83035868FF21FCF72BFF2378AD
:104BB00003EB430309EB8303D3F804B0237803EB3F
:104BC000430309EB830358685146FCF775FF014620
:104BD0005846FCF777FF237803EB430309EB830385
:104BE0009868FEF7A7FE237803EB430309EB8309DC
:104BF000D9F804000121FCF755FFFEF76FFE63783A
:104C000013F0FF0FFBD02378DFF8009103EB430391
:104C100009EB830358680121FCF748FF237803EB75
:104C2000430309EB83039868FEF7BAFE6868297AA4
:104C300001220923FEF78AFC6868297AFEF742FD03
:104C4000D8F800204FF0000A84F801A0237803EB85
:104C5000430309EB83035868FF21013AFCF70CFF7B
:104C6000237803EB430309EB83035868FF21FCF728
:104C7000C9FE237803EB430309EB8303D3F804B0A5
:104C8000237803EB430309EB830358685146FCF791
:104C900013FF01465846FCF715FF237803EB430347
:104CA00009EB83039868FEF745FE237803EB430383
:104CB00009EB8309D9F804000121FCF7F3FEFEF7A4
:104CC0000DFE637813F0FF0FFBD02378DFF83C90E4
:104CD00003EB430309EB830358680121FCF7E6FE6D
:104CE000237803EB430309EB8309D9F80800FEF7A7
:104CF00057FE7F08013E16F0FF067FF467AEBDE861
:104D0000F88F00BFE0100020100500203480000064
:104D10002DE9F04F83B004460E464FF008084FF0DF
:104D20005509DFF89CA1644D6068217AFEF7D8FC34
:104D300019F0010F00F0C6806068217A0022FEF7AA
:104D4000BDFCDAF800204FF0000B85F801B02B789D
:104D50005A4F03EB430307EB83035868FF21013AE3
:104D6000FCF78AFE2B7803EB430307EB83035868B9
:104D7000FF21FCF747FE2B7803EB430307EB83038C
:104D80005B6801932B7803EB430307EB83035868BD
:104D90005946FCF791FE01460198FCF793FE2B78EB
:104DA00003EB430307EB83039868FEF7C3FD2B78FF
:104DB00003EB430307EB830778680121FCF772FEDE
:104DC000FEF78CFD6B7813F0FF0FFBD02B783B4F79
:104DD00003EB430307EB830358680121FCF766FEEE
:104DE0002B7803EB430307EB83039868FEF7D8FDAA
:104DF0006068217A01220923FEF7A8FB6068217A06
:104E0000FEF760FCDAF80020352303FB02F24FF0D6
:104E1000000B85F801B02B7803EB430307EB83030A
:104E20005868FF21013AFCF727FE2B7803EB430378
:104E300007EB83035868FF21FCF7E4FD2B7803EBB5
:104E4000430307EB83035B6801932B7803EB430376
:104E500007EB830358685946FCF72EFE014601987C
:104E6000FCF730FE2B7803EB430307EB83039868D2
:104E7000FEF760FD2B7803EB430307EB83077868AD
:104E80000121FCF70FFEFEF729FD6B7813F0FF0FF1
:104E9000FBD02B78094F03EB430307EB83035868E0
:104EA0000121FCF703FE2B7803EB430307EB830799
:104EB000B868FEF775FDC4E0E01000203480000003
:104EC000100500206068217A0022FEF7F7FBDAF86F
:104ED0000020352303FB02F24FF0000B85F801B0F0
:104EE0002B78CA4F03EB430307EB83035868FF217A
:104EF000013AFCF7C1FD2B7803EB430307EB830377
:104F00005868FF21FCF77EFD2B7803EB430307EB8A
:104F100083035B6801932B7803EB430307EB830365
:104F200058685946FCF7C8FD01460198FCF7CAFDD0
:104F30002B7803EB430307EB83039868FEF7FAFC37
:104F40002B7803EB430307EB830778680121FCF719
:104F5000A9FDFEF7C3FC6B7813F0FF0FFBD02B7895
:104F6000AA4F03EB430307EB830358680121FCF7C7
:104F70009DFD2B7803EB430307EB83039868FEF753
:104F80000FFD6068217A01220923FEF7DFFA6068CD
:104F9000217AFEF797FBDAF800204FF0000B85F836
:104FA00001B02B7803EB430307EB83035868FF2121
:104FB000013AFCF761FD2B7803EB430307EB830316
:104FC0005868FF21FCF71EFD2B7803EB430307EB2A
:104FD00083035B6801932B7803EB430307EB8303A5
:104FE00058685946FCF768FD01460198FCF76AFDD0
:104FF0002B7803EB430307EB83039868FEF79AFCD7
:105000002B7803EB430307EB830778680121FCF758
:1050100049FDFEF763FC6B7813F0FF0FFBD02B7894
:105020007A4F03EB430307EB830358680121FCF736
:105030003DFD2B7803EB430307EB8307B868FEF7CE
:10504000AFFC4FEA590908F1FF3818F0FF087FF468
:105050006BAE0027DFF8BC816D4DFBB2DA0803F0C0
:1050600007034FF0010909FA03F9B35C03EA0909E0
:105070006068217AFEF734FBB9F1000F00F0CC80B4
:105080006068217A0022FEF719FBD8F800204FF063
:10509000000A85F801A02B78DFF8709103EB430339
:1050A00009EB83035868FF21013AFCF7E5FC2B78F4
:1050B00003EB430309EB83035868FF21FCF7A2FCD1
:1050C0002B7803EB430309EB8303D3F804B02B786D
:1050D00003EB430309EB830358685146FCF7ECFCF0
:1050E00001465846FCF7EEFC2B7803EB430309EB33
:1050F00083039868FEF71EFC2B7803EB430309EB50
:105100008309D9F804000121FCF7CCFCFEF7E6FB8B
:105110006B7813F0FF0FFBD02B78DFF8F09003EBE8
:10512000430309EB830358680121FCF7BFFC2B788C
:1051300003EB430309EB83039868FEF731FC6068D7
:10514000217A01220923FEF701FA6068217AFEF72D
:10515000B9FAD8F80020352303FB02F24FF0000A19
:1051600085F801A02B7803EB430309EB8303586810
:10517000FF21013AFCF780FC2B7803EB430309EB9A
:1051800083035868FF21FCF73DFC2B7803EB4303B6
:1051900009EB8303D3F804B02B7803EB430309EB4B
:1051A000830358685146FCF787FC01465846FCF7D4
:1051B00089FC2B7803EB430309EB83039868FEF724
:1051C000B9FB2B7803EB430309EB8309D9F80400FF
:1051D0000121FCF767FCFEF781FB6B7813F0FF0FF2
:1051E000FBD02B78DFF8249003EB430309EB830318
:1051F00058680121FCF75AFC2B7803EB430309EBB9
:105200008309D9F80800FEF7CBFBCAE03480000020
:10521000E0100020100500206068217A0022FEF7CF
:105220004DFAD8F80020352303FB02F24FF0000AB4
:1052300085F801A02B78DFF8789103EB430309EBA5
:1052400083035868FF21013AFCF716FC2B7803EB27
:10525000430309EB83035868FF21FCF7D3FB2B784A
:1052600003EB430309EB8303D3F804B02B7803EB80
:10527000430309EB830358685146FCF71DFC0146C4
:105280005846FCF71FFC2B7803EB430309EB830321
:105290009868FEF74FFB2B7803EB430309EB830978
:1052A000D9F804000121FCF7FDFBFEF717FB6B7832
:1052B00013F0FF0FFBD02B78DFF8F49003EB4303E0
:1052C00009EB830358680121FCF7F0FB2B7803EB13
:1052D000430309EB83039868FEF762FB6068217A59
:1052E00001220923FEF732F96068217AFEF7EAF914
:1052F000D8F800204FF0000A85F801A02B7803EBC6
:10530000430309EB83035868FF21013AFCF7B4FB20
:105310002B7803EB430309EB83035868FF21FCF769
:1053200071FB2B7803EB430309EB8303D3F804B041
:105330002B7803EB430309EB830358685146FCF7D2
:10534000BBFB01465846FCF7BDFB2B7803EB430340
:1053500009EB83039868FEF7EDFA2B7803EB430320
:1053600009EB8309D9F804000121FCF79BFBFEF748
:10537000B5FA6B7813F0FF0FFBD02B78DFF8309085
:1053800003EB430309EB830358680121FCF78EFB11
:105390002B7803EB430309EB8309D9F80800FEF7E8
:1053A000FFFA0137402F7FF458AE03B0BDE8F08F0D
:1053B00034800000002343700170A9B110B4441C74
:1053C0004B1EDBB203EBC3030A33184400226272A4
:1053D00004F10801234603F8012F8B42FBD1093465
:1053E0008442F4D15DF8044B704700BF2DE9F04FC3
:1053F00085B0019202EBC2030B449B7A402B01F073
:105400007B84039288460546FEF7D6FB08274FF0BB
:10541000F009DFF8A0A1654CCDF800806868297A12
:10542000FEF75EF919F0010F00F0C6806868297A6E
:105430000022FEF743F9DAF800204FF0000884F864
:10544000018023785A4E03EB430306EB830358682D
:10545000FF21013AFCF710FB237803EB430306EB33
:1054600083035868FF21FCF7CDFA237803EB43034D
:1054700006EB8303D3F804B0237803EB430306EB76
:10548000830358684146FCF717FB01465846FCF772
:1054900019FB237803EB430306EB83039868FEF7BD
:1054A00049FA237803EB430306EB83067068012176
:1054B000FCF7F8FAFEF712FA637813F0FF0FFBD04F
:1054C00023783B4E03EB430306EB8303586801212B
:1054D000FCF7ECFA237803EB430306EB83039868AD
:1054E000FEF75EFA6868297A01220923FEF72EF892
:1054F0006868297AFEF7E6F8DAF80020352303FB1E
:1055000002F24FF0000884F80180237803EB430394
:1055100006EB83035868FF21013AFCF7ADFA2378C4
:1055200003EB430306EB83035868FF21FCF76AFA99
:10553000237803EB430306EB8303D3F804B023780B
:1055400003EB430306EB830358684146FCF7B4FAC8
:1055500001465846FCF7B6FA237803EB430306EB03
:1055600083039868FEF7E6F9237803EB430306EB21
:10557000830670680121FCF795FAFEF7AFF96378AE
:1055800013F0FF0FFBD02378094E03EB430306EB28
:10559000830358680121FCF789FA237803EB43035E
:1055A00006EB8306B068FEF7FBF9C4E0E0100020CC
:1055B00034800000100500206868297A0022FEF778
:1055C0007DF8DAF80020352303FB02F24FF00008E3
:1055D00084F801802378CC4E03EB430306EB83036E
:1055E0005868FF21013AFCF747FA237803EB43039D
:1055F00006EB83035868FF21FCF704FA237803EBDA
:10560000430306EB8303D3F804B0237803EB43038F
:1056100006EB830358684146FCF74EFA01465846AC
:10562000FCF750FA237803EB430306EB83039868F7
:10563000FEF780F9237803EB430306EB83067068DB
:105640000121FCF72FFAFEF749F9637813F0FF0FF9
:10565000FBD02378AC4E03EB430306EB830358687F
:105660000121FCF723FA237803EB430306EB8303C2
:105670009868FEF795F96868297A01220923FDF7F1
:1056800065FF6868297AFEF71DF8DAF800204FF008
:10569000000884F80180237803EB430306EB8303BF
:1056A0005868FF21013AFCF7E7F9237803EB43033D
:1056B00006EB83035868FF21FCF7A4F9237803EB7A
:1056C000430306EB8303D3F804B0237803EB4303CF
:1056D00006EB830358684146FCF7EEF9014658464D
:1056E000FCF7F0F9237803EB430306EB8303986898
:1056F000FEF720F9237803EB430306EB830670687B
:105700000121FCF7CFF9FEF7E9F8637813F0FF0FFA
:10571000FBD023787C4E03EB430306EB83035868EE
:105720000121FCF7C3F9237803EB430306EB83065F
:10573000B068FEF735F94FEA5909013F17F0FF0746
:105740007FF46CAEDDF80080039B03EBC30343449E
:105750009B7A002B00F0EC8300276C4C019B03EB41
:10576000C30908EB090300936868297AFDF7B8FFBD
:105770006868297A0022FDF7A1FF654B1A684FF08F
:10578000000A84F801A023785F4E03EB430306EB85
:1057900083035868FF21013AFCF76EF9237803EB85
:1057A000430306EB83035868FF21FCF72BF92378AA
:1057B00003EB430306EB8303D3F804B0237803EB36
:1057C000430306EB830358685146FCF775F901461D
:1057D0005846FCF777F9237803EB430306EB830382
:1057E0009868FEF7A7F8237803EB430306EB8306DC
:1057F00070680121FCF756F9FEF770F8637813F032
:10580000FF0FFBD02378404E03EB430306EB8303EB
:1058100058680121FCF74AF9237803EB430306EBB0
:1058200083039868FEF7BCF86868297A0122092387
:10583000FDF78CFE6868297AFDF744FF344B1A683F
:1058400052004FF0000A84F801A0237803EB4303D1
:1058500006EB83035868FF21013AFCF70DF9237822
:1058600003EB430306EB83035868FF21FCF7CAF8F8
:10587000237803EB430306EB8303D3F804B02378C8
:1058800003EB430306EB830358685146FCF714F916
:1058900001465846FCF716F9237803EB430306EB61
:1058A00083039868FEF746F8237803EB430306EB7F
:1058B000830670680121FCF7F5F8FEF70FF86378AE
:1058C00013F0FF0FFBD023780F4E03EB430306EBDF
:1058D000830358680121FCF7E9F8237803EB4303BD
:1058E00006EB83039868FEF75BF86868297AFDF792
:1058F000E1FE074B1B6803EBC30203EB82024FF090
:10590000000A84F801A005E034800000E0100020C7
:1059100010050020237803EB430306EB830358684C
:10592000FF21013AFCF7A8F8237803EB430306EBC9
:1059300083035868FF21FCF765F8237803EB4303E2
:1059400006EB8303D3F804B0237803EB430306EBA1
:10595000830358685146FCF7AFF801465846FCF7F8
:10596000B1F8237803EB430306EB83039868FDF754
:10597000E1FF237803EB430306EB83067068012104
:10598000FCF790F8FDF7AAFF637813F0FF0FFBD048
:105990002378CC4E03EB430306EB830358680121C5
:1059A000FCF784F8237803EB430306EB8303986842
:1059B000FDF7F6FF6868297AFDF792FE6868297A94
:1059C0000022FDF77BFEC04B1A684FF0000A84F8F6
:1059D00001A0237803EB430306EB83035868FF2100
:1059E000013AFCF749F8237803EB430306EB830302
:1059F0005868FF21FCF706F8237803EB430306EB16
:105A00008303D3F804B0237803EB430306EB83034B
:105A100058685146FCF750F801465846FCF752F8D2
:105A2000237803EB430306EB83039868FDF782FFBB
:105A3000237803EB430306EB830670680121FCF730
:105A400031F8FDF74BFF637813F0FF0FFBD023789D
:105A50009C4E03EB430306EB830358680121FCF7DC
:105A600025F8237803EB430306EB83039868FDF7DF
:105A700097FF6868297A01220923FDF767FD6868A6
:105A8000297AFDF71FFE904B1A6852004FF0000A6A
:105A900084F801A0237803EB430306EB83035868E3
:105AA000FF21013AFBF7E8FF237803EB430306EB02
:105AB00083035868FF21FBF7A5FF237803EB43031B
:105AC00006EB8303D3F804B0237803EB430306EB20
:105AD000830358685146FBF7EFFF01465846FBF732
